S0170000375365676D656E744C4544436F64652E73726563B3
S11300000C942A000C943F000C943F000C94410083
S11300100C943F000C943F000C943F000C943F0060
S11300200C943F000C943F000C943F000C943F0050
S11300300C943F000C943F000C943F000C943F0040
S11300400C943F000C943F000C943F000C943F0030
S11300500C943F0011241FBECFE5D8E0DEBFCDBF16
S113006010E0A0E6B0E0E6ECF0E002C005900D92EE
S1130070A036B107D9F70E9453000C9461000C9488
S113008000001F920F920FB60F9211248F939F932B
S113009095B381E0892785BB9F918F910F900FBE07
S11300A00F901F90189517BA8FEF81BB82BB84E025
S11300B088BB81E084BB80E28BBF80E484BF7894FA
S10900C0FFCFF894FFCF0E
S9030000FC
